:020000040800F2
:1000000000000220DD3000085111000853110008E3
:100010005511000857110008591100080000000090
:100020000000000000000000000000005B1100085C
:100030005D110008000000005F1100086111000858
:100040002D3100082D3100082D3100082D31000818
:100050002D3100082D310008691100082D310008EC
:100060002D3100082D3100082D3100082D310008F8
:100070002D3100082D3100082D3100082D310008E8
:100080002D3100082D3100082D310008000000003E
:100090000000000000000000000000002D310008FA
:1000A0002D3100082D3100082D3100082D310008B8
:1000B000851100082D3100082D3100082D31000870
:1000C0002D3100082D3100082D3100082D31000898
:1000D0002D310008951100082D31000800000000A6
:1000E0002D3100082D3100082D31000800000000DE
:1000F0000000000000000000000000002D3100089A
:10010000000000002D3100082D3100082D310008BD
:1001100000000000000000000000000000000000DF
:10012000A51100082D3100082D3100082D310008DF
:100130002D31000800000000000000000000000059
:100140000000000000000000000000002D31000849
:100150002D3100082D3100082D3100082D31000807
:100160002D3100082D3100080000000000000000C3
:10017000000000000000000000000000000000007F
:10018000000000002D310008000000000000000009
:080190002D3100082D3100089B
:1001A00010B5054C237833B9044B13B10448AFF3B1
:1001B00000800123237010BD7C000020000000009F
:1001C000043F000808B5034B1BB103490348AFF3D4
:1001D000008008BD0000000080000020043F0008EF
:1001E00053B94AB9002908BF00281CBF4FF0FF319E
:1001F0004FF0FF3000F072B9ADF1080C6DE904CE9C
:1002000000F006F8DDF804E0DDE9022304B07047F1
:100210002DE9F047089E04468846002B4BD18A42C0
:10022000154667D9B2FA82F24AB1C2F1200701FA43
:1002300002F320FA07F7954047EA030894404FEA93
:10024000154E230CB8FBFEF71FFA85FC0EFB178832
:1002500043EA084307FB0CF1994209D9EB1807F16F
:10026000FF3080F01B81994240F21881023F2B44FD
:100270005B1AA4B2B3FBFEF00EFB103344EA034456
:1002800000FB0CFCA44509D92C1900F1FF3380F0C8
:100290000781A44540F2048102382C4440EA07401B
:1002A000A4EB0C0400271EB1D4400023C6E9004390
:1002B0003946BDE8F0878B4209D9002E00F0EB806B
:1002C0000027C6E9000138463946BDE8F087B3FA91
:1002D00083F7002F47D18B4202D3824200F2FA808B
:1002E000841A61EB030301209846002EE0D0C6E992
:1002F0000048DDE702B9FFDEB2FA82F2002A40F0E0
:100300008F80491B4FEA154E1FFA85F80127B1FB74
:10031000FEFC230C0EFB1C1143EA014308FB0CF10D
:10032000994207D9EB180CF1FF3002D2994200F242
:10033000CD808446591AA3B2B1FBFEF00EFB101417
:1003400043EA044408FB00F8A04507D92C1900F142
:10035000FF3302D2A04500F2B6801846A4EB080491
:1003600040EA0C409FE7C7F1200CBB4022FA0CFE8C
:100370004EEA030E01FA07F420FA0CF521FA0CF309
:100380004FEA1E482543B3FBF8F92C0C08FB193340
:100390001FFA8EFA44EA034309FB0AF49C4202FA6C
:1003A00007F200FA07F10BD91EEB030309F1FF3046
:1003B00080F087809C4240F28480A9F10209734456
:1003C0001B1BADB2B3FBF8F008FB103345EA034446
:1003D00000FB0AFAA24508D91EEB040400F1FF3322
:1003E0006BD2A24569D90238744440EA0940A0FBA7
:1003F0000289A4EB0A044C45C2464B4654D351D063
:10040000002E69D0B1EB0A0564EB030404FA0CFC7E
:10041000FD40FC404CEA0505C6E90054002747E7CB
:10042000C2F1200320FA03F7954001FA02F021FA05
:1004300003F34FEA154E3843010CB3FBFEF71FFAE6
:1004400085F80EFB173341EA034107FB08F38B42A3
:1004500004FA02F407D9691807F1FF3C2FD28B4246
:100460002DD9023F2944CB1A81B2B3FBFEF00EFB1B
:10047000103341EA034100FB08F38B4207D96918A6
:1004800000F1FF3C17D28B4215D902382944C91A12
:1004900040EA07473BE73746304609E70746E7E6C5
:1004A0001846FBE64145ABD2B8EB020A69EB0E02F7
:1004B00001381346A4E76046E9E7184695E7674622
:1004C000D1E781467CE702382C4447E7ACF1020CC7
:1004D0002B442FE7384608E73746E9E6704700BF68
:1004E000034613F8012B002AFBD1181A0138704774
:1004F00001F0FF01102A2BDB10F0070F08D010F8D5
:10050000013B013A8B422DD010F0070F42B3F6D1D8
:10051000F0B441EA012141EA014122F007047FF0F1
:1005200000070023F0E80256083C85EA010586EA48
:10053000010685FA47F5A3FA87F586FA47F6A5FA84
:1005400087F68EB9EED1F0BC01F0FF0102F0070290
:1005500032B110F8013B013A83EA010313B1F8D13B
:100560000020704701387047002D06BF354603381C
:10057000073815F0010F07D1013015F4807F02BF55
:10058000013015F4C03F0130F0BC0138704700BFA6
:1005900070B50D4E0D4CA41BA4100025A54209D129
:1005A0000B4E0C4C03F0AEFCA41BA4100025A5427E
:1005B00005D170BD56F8253098470135EEE756F85D
:1005C000253098470135F2E7804000088040000858
:1005D000804000088440000802440346934200D152
:1005E000704703F8011BF9E70A4B10B50446186879
:1005F00018B183690BB902F0E1FD132C07D8064846
:1006000050F83430013302D000EBC40010BD00209C
:10061000FCE700BF0C000020A8000020F8B5431C38
:10062000054609D102F084FD132406460027204622
:100630003946ABBE044634602846F8BDF8B50546D9
:1006400002F076FD13240646002720463946ABBE4D
:10065000044634602846F8BD30B585B0CDE90101C7
:100660000392062401AD20462946ABBE044620462F
:10067000FFF7D4FF05B030BD70B50E461546FFF745
:10068000B3FF044630B902F053FD092303604FF075
:10069000FF3070BD2A4631460068FFF7DDFF431C7E
:1006A0001FBF6368281A1B186360F2E7F7B50C4692
:1006B0001646FFF799FF054640B902F039FD0923B8
:1006C00003604FF0FF34204603B0F0BD022E03D983
:1006D00002F02EFD1623F3E7012E12D14368E41831
:1006E000F6D42B680A26CDE900346F4630463946E9
:1006F000ABBE06463046FFF791FF0028E1DB6C6099
:10070000E1E7022EEDD102AF036847F8083D0C2661
:1007100030463946ABBE06463046FFF77FFF431CE6
:10072000CFD00444DDE7FFF7C1BF30B585B0CDE9D8
:1007300001010392052401AD20462946ABBE0446C3
:100740002046FFF76BFF05B030BD70B50E4615466D
:10075000FFF74AFF044630B902F0EAFC09230360C0
:100760004FF0FF3070BD2A4631460068FFF7DDFFCD
:10077000021EF5DB6368A81A0344AA426360F1D144
:100780000020BDE87040FFF759BF37B502AD022425
:1007900045F8040D20462946ABBE04462046FFF727
:1007A0003DFF03B030BD000038B50546FFF71CFF24
:1007B000044630B902F0BCFC092303604FF0FF305F
:1007C00038BD013D012D09D8094B9A681B699A4231
:1007D00004D14FF0FF3303600020F1E72068FFF7FA
:1007E000D4FF0028ECD14FF0FF332360E8E700BFCF
:1007F000A80000200D4B196810B5024609B90C4934
:1008000019601868694602448A4206D809490A4CA8
:100810000968A14208D08A4206D902F089FC0C235B
:1008200003604FF0FF3010BD1A60FCE79800002015
:100830009002002070000020ADDEFECA70B50C46AC
:10084000FFF7D2FE064630B902F072FC09230360BE
:100850004FF0FF3070BD636843F4005363604FF4A2
:10086000806363640C2528463146ABBE05462846A6
:10087000FFF7D4FE431C1CBF20610020EAE70B46B3
:1008800010B50021044658221846FFF7A5FE014680
:100890002046BDE81040FFF7D1BF38B50D460446ED
:1008A000582200212846FFF797FE2046002100F03D
:1008B00011F8431C04460BD06B6843F401436B6092
:1008C0002946FFF7BBFF05462046FFF76DFF2C4684
:1008D000204638BD2DE9F0472B4B96B082460E4698
:1008E0000025984653F83540611C4FEAC50736D0BD
:1008F0000135142DF6D102F01BFC182303604FF0D4
:10090000FF343CE0C6F3004440F20163B20748BF45
:1009100044F002041E4218BF44F00404330748BFE9
:1009200024F00404504648BF44F00804CDF800A069
:10093000FFF7D6FDCDE90140012420464946ABBE74
:100940000446002C06DB4744002348F835407B6012
:100950002C4614E02046FFF771FE04460FE006F433
:100960002063B3F5206FE946CCD149465046FFF7E6
:1009700094FF0130C6D002F0DBFB11230360204658
:1009800016B0BDE8F08700BFA80000202DE9F743AE
:1009900007468846294800211546FFF79BFF2A464F
:1009A000044600213846FFF717FE631C15D0204689
:1009B000FFF71AFE0C26814630464946ABBE064676
:1009C0003046FFF72BFE032802DD0338A84208DC7F
:1009D0002046FFF7E9FE4FF0FF34204603B0BDE8A4
:1009E000F08304220DEB02012046FFF745FE0328A9
:1009F000EEDD9DF80430532BEAD19DF80530482BED
:100A0000E6D19DF80630462BE2D19DF80730422B07
:100A1000DED1012241462046FFF748FE0028D7DB01
:100A20002A4639462046FFF727FE05462046FFF7AF
:100A3000BBFE2846FFF7F2FD0446CEE7403F000824
:100A400037B50A4D0A4C0021012201A82960226015
:100A5000FFF79CFF002807DD9DF8043003F001023A
:100A600003F002032A60236003B030BD740000204D
:100A70007800002010B5044C2268002A01DAFFF744
:100A8000DFFF206810BD00BF780000202DE9F04F87
:100A900085B0DFF8B090CDF80490032300240393D1
:100AA0000DF104080294012528464146ABBE0546D7
:100AB000204E214A356023464FF0FF31144642F85C
:100AC00033100133142BFAD1FFF7D4FF1B4DD0B1F3
:100AD0004FF0030A0423CDF804900127CDF80CA0B1
:100AE000029338464146ABBE8346154BCDF8049081
:100AF000C3F800B00823CDF80CA002933846414655
:100B0000ABBE07462F602B68013302BF0C4B1B683E
:100B10002B603368236000266660FFF7ABFF30B1BF
:100B2000074B1B68C4E902362B68C4E9043605B0DC
:100B3000BDE8F08FA0000020A80000209C0000204D
:100B4000A4000020563F000870B5FFF74DFD0925B1
:100B5000044620B902F0ECFA0560204670BD284634
:100B60002146ABBE0446012CF7D002F0E1FA002486
:100B70000646132528462146ABBE05463560ECE700
:100B8000F0B58BB00024059406940794089409945A
:100B90000094384B1A6B42F004021A631A6B02F08D
:100BA00004020092009A01941A6B42F080021A63C8
:100BB0001A6B02F080020192019A02941A6B42F0C1
:100BC00001021A631A6B02F001020292029A039464
:100BD0001A6B42F008021A631A6B02F008020392C1
:100BE000039A04941A6B42F002021A631B6B03F01F
:100BF00002030493049B204D22460E21284601F057
:100C00002FFA1E4F22464FF4A041384601F028FA31
:100C1000012605961A4B0693079405A9284601F06C
:100C20004DF90E23059306960794089405A92846C6
:100C300001F044F94FF4A0430593069607940894F5
:100C400005A9384601F03AF980230593022306935B
:100C5000079408940626099605A9284601F02EF95E
:100C600022462146304600F0B9FE304600F0EAFE4A
:100C70000BB0F0BD0038024000080240000C0240FA
:100C80000000111000B583B000210191094B1A6BCF
:100C900042F480021A631B6B03F480030193019BEF
:100CA0000A46382000F09AFE382000F0CBFE03B050
:100CB0005DF804FB00380240F0B58DB02022002121
:100CC00004A8FFF789FC002500950195029503957E
:100CD000274C284B23604FF4803363604FF08073C0
:100CE000A36001262661257684F82050E562224B18
:100CF000A362E5600627E76184F8306066612046FC
:100D000000F064FB04950596089606950B951B4B21
:100D10000A938DF825508DF82450079504A9204694
:100D200000F040FD00960226019602956946204695
:100D300000F066FC0096032501956946204600F008
:100D40005FFC0095042501956946204600F058FC9B
:100D50000095052501956946204600F051FC009557
:100D600001976946204600F04BFC0DB0F0BD00BF76
:100D70005C010020002001400100000F01000F0075
:100D800008B50848084B03604FF4E1334360002383
:100D90008360C36003610C2242618361C36102F01E
:100DA00023F808BDA40100200010014030B587B031
:100DB00000240294039404940594009401940F4D2C
:100DC0004FF080432B6042F20F736B60AC60EB60BE
:100DD0002C618023AB61284601F0E8FD4FF480537D
:100DE000029302A9284601F006FE00940194694688
:100DF000284601F06DFE07B030BD00BF4402002060
:100E000030B595B03022002108A8FFF7E5FB00249B
:100E1000039404940594069407940194194B1A6C56
:100E200042F080521A641B6C03F080530193019BC3
:100E30000294154B1A6842F440421A601B6803F48E
:100E400040430293029B0225089501230B93102334
:100E50000C930E950F94082310936422119212950F
:100E6000139308A801F01AF90F230393049505942E
:100E70004FF4805306930794032103A801F070FBFD
:100E800015B030BD003802400070004010B586B08B
:100E900000F0C2F9FFF7FAFDFFF7B2FFFFF770FEAF
:100EA000FFF7F0FEFFF708FFFFF76AFFFFF77EFF8F
:100EB000184801F05AFC1849184802F063FA062253
:100EC0001749184800F0AEFA0FE001220DF10701B2
:100ED000154801F0DCFF4FF47A7000F0C9F99DF875
:100EE00007201249124802F04DFA124B02AC0FCB08
:100EF00007C423701049094802F044FA0C2202A9E1
:100F0000094801F0A0FF0028DFD00C49034802F097
:100F100039FADAE7440200205C3F00086C3F000821
:100F2000500100205C010020A40100208C3F00083B
:100F3000983F0008A03F0008743F0008843F000865
:100F400010B5002407E0054B33F81420214604486F
:100F500002F018FA0134052CF5DD10BD5001002017
:100F6000B03F000808B50368B3F1804F00D008BD5A
:100F70000449054802F006FA4FF48041034801F0A5
:100F800075F8F4E7BC3F0008CC3F0008000C0240B5
:100F900008B50249024802F0F5F908BDD03F000843
:100FA000CC3F00087047000000B583B000210091DD
:100FB0000C4B5A6C42F480425A645A6C02F48042E0
:100FC0000092009A01911A6C42F080521A641B6CD4
:100FD00003F080530193019B072000F0EDFC03B068
:100FE0005DF804FB0038024030B589B0002303935C
:100FF0000493059306930793026803F1804303F576
:1010000090339A4201D009B030BD044600250195C5
:1010100003F58C335A6C42F480725A645A6C02F4B1
:1010200080720192019A02951A6B42F001021A63D2
:101030001B6B03F001030293029B3F2303930323E3
:10104000049303A9104800F039FF1048104B0360C7
:1010500045608560C5604FF4806303614FF40063B1
:1010600043614FF4005383614FF48073C3610562A1
:10107000456200F087FD18B9044BA3639C63C2E787
:10108000FFF790FFF8E700BF00000240E4010020F6
:10109000106402400368B3F1804F00D0704700B580
:1010A00083B00021019103F50E331A6C42F0010266
:1010B0001A641B6C03F001030193019B0A461C2078
:1010C00000F08CFC1C2000F0BDFC03B05DF804FBBC
:1010D00010B588B0002303930493059306930793F8
:1010E000026803F1804303F588339A4201D008B0C7
:1010F00010BD0024019403F594335A6C42F01002A1
:101100005A645A6C02F010020192019A02941A6B0E
:1011100042F002021A631B6B03F002030293029B6C
:10112000C023039302230493032306930723079307
:1011300003A9064800F0C2FE22462146252000F001
:101140004DFC252000F07EFCD1E700BF00040240EA
:101150007047FEE7FEE7FEE7FEE77047704770471F
:1011600008B500F073F808BD08B501224FF48051AE
:10117000034800F075FF012000F082FF08BD00BFAA
:10118000000C024008B5024801F004FB08BD00BF96
:101190004402002008B5024801F004FF08BD00BF6A
:1011A000A401002008B5024800F09AFD08BD00BF68
:1011B000E4010020054BD3F8882042F47002C3F804
:1011C00088204FF000629A60704700BF00ED00E099
:1011D00010B504460E4B18784FF47A73B3FBF0F356
:1011E0000C4A1068B0FBF3F000F03AFC68B90F2C21
:1011F00001D901200AE0002221464FF0FF3000F023
:10120000EDFB034B5C60002000E0012010BD00BF3F
:10121000040000200000002008B50B4B1A6842F4BF
:1012200000721A601A6842F480621A601A6842F406
:1012300080721A60032000F0BFFB0020FFF7C8FF98
:10124000FFF7B2FE002008BD003C0240034A1168CF
:10125000034B1B780B441360704700BF84020020CF
:1012600004000020014B1868704700BF8402002072
:1012700038B50446FFF7F6FF0546B4F1FF3F02D04C
:10128000044B1B781C44FFF7EDFF401BA042FAD330
:1012900038BD00BF040000204A4B5A6822F4403297
:1012A0005A605A6841680A435A600268536823F4D6
:1012B0008073536002685368016943EA01235360F5
:1012C0000268536823F04073536002685368816872
:1012D0000B4353600268936823F4006393600268D1
:1012E0009368C1680B439360826A374B9A424BD034
:1012F0000268936823F07063936002689368816A60
:101300000B4393600268936823F040539360026834
:101310009368C16A0B4393600268936823F00203E9
:10132000936002689368017E43EA4103936090F8FA
:101330002030002B33D10268536823F400635360DC
:101340000268D36A23F47003D3620168CB6AC2696E
:10135000013A43EA0253CB620268936823F40073B4
:1013600093600268936890F8301043EA41239360D9
:101370000268936823F4806393600268936841690C
:1013800043EA8123936070470268936823F0706397
:1013900093600268936823F040539360BCE702684F
:1013A000536843F4006353600268536823F4604356
:1013B000536001684B68426A013A43EA42334B602A
:1013C000BEE700BF002301400100000F38B310B595
:1013D0000446036C43B1236C13F0100F0BD00120B3
:1013E000002384F83C3010BDFFF7FEFD002363644A
:1013F00084F83C30EFE7236C23F4885323F0020396
:1014000043F0020323642046FFF746FF0020606498
:10141000236C23F0030343F001032364E0E701207E
:101420007047000030B583B00023019390F83C3042
:10143000012B00F08180012380F83C300468A36810
:1014400013F0010F13D1A36843F00103A3603F4BD6
:101450001C683F4BA3FB0434A40C04EB440401942C
:1014600002E0019C013C0194019C002CF9D103682D
:101470009C6814F0010F61D0046C24F4E06424F043
:10148000010444F4807404645B6813F4806F05D035
:10149000036C23F4405343F480530364036C13F44C
:1014A000805F36D0436C23F0060343641346044642
:1014B000002280F83C20826B2648D063A26B26482D
:1014C0001064A26B2548D06422686FF0220010607F
:1014D0002568686840F0806068602568A86840F406
:1014E0008070A86020680A4600F14C01A06B00F0F3
:1014F000AFFB1B4B5B6813F01F0F0DD123689A687D
:1015000012F0405F1DD19A6842F080429A6000203C
:1015100015E000234364C9E72368124A934201D0CF
:1015200000200CE09A6812F0405F0CD19A6842F0FB
:1015300080429A60002002E0022000E0002003B018
:1015400030BD0020FBE70020F9E700BF00000020CD
:1015500083DE1B438D1500086B1500087715000806
:101560000023014000200140704708B5806BFFF761
:10157000FBFF08BD704708B5806B40230364436CD4
:1015800043F004034364FFF7F5FF08BD08B5836B20
:101590001A6C12F0500F26D11A6C42F400721A64C1
:1015A0001A68916811F0405F19D1197EB9B9D16AF2
:1015B00011F4700F03D0916811F4806F0FD151684E
:1015C00021F0200151601A6C22F480721A641A6CA6
:1015D00012F4805F03D11A6C42F001021A641846BB
:1015E000FFF7AEFC08BD1A6C12F0100F03D19B6B15
:1015F000DB6C9847F6E71846FFF7BCFFF2E7000000
:1016000030B482B00023019390F83C30012B00F0FD
:10161000BD80012380F83C300B68092B3ED905685A
:10162000EA689BB203EB43031E3B072404FA03F36F
:1016300022EA0303EB600568EA688C680B8803EB19
:1016400043031E3B04FA03F31343EB604B68062B82
:101650003AD805686A6B03EB8303053B1F2404FA41
:1016600003F322EA03036B6305686A6B4B6803EBC1
:101670008303053B0C8804FA03F313436B6302688E
:10168000434B9A4250D00268414B9A4259D00023B2
:1016900080F83C30184602B030BC704705682A69B3
:1016A0009BB203EB4303072404FA03F322EA030388
:1016B0002B6105682A698C680B8803EB430304FAE5
:1016C00003F313432B61C1E70C2B16D805682A6B73
:1016D00003EB8303233B1F2404FA03F322EA0303EF
:1016E0002B6305682A6B4B6803EB8303233B0C8851
:1016F00004FA03F313432B63C1E70568EA6A03EBBB
:101700008303413B1F2404FA03F322EA0303EB6241
:101710000568EA6A4B6803EB8303413B0C8804FAD3
:1017200003F31343EB62AAE70B68122BABD1194BFF
:101730005A6822F400025A605A6842F480025A60E1
:10174000A1E70B68144A934201D0112B9FD1114B92
:101750005A6822F480025A605A6842F400025A60C1
:101760000A680D4B9A4292D10C4B1B680C4AA2FBA3
:1017700003239B0C03EB83035A00019202E0019BBD
:10178000013B0193019B002BF9D180E7022082E706
:101790000020014000230140120000100000002042
:1017A00083DE1B4390F83C30012B00F0FB8030B40B
:1017B000012380F83C300B68092B7DD90568EA6865
:1017C0009BB203EB43031E3B072404FA03F322EA14
:1017D0000303EB600568EA688C680B8803EB43033E
:1017E0001E3B04FA03F31343EB600268936B23F48C
:1017F000401393630468A36B0A69013A43EA0253F6
:10180000A3630568AA6B4B680C691B1BDBB203332F
:10181000DBB203EB83031F2404FA03F322EA03037E
:10182000AB630568AA6B4B680C691B1BDBB2033307
:10183000DBB203EB83030C8804FA03F31343AB63BB
:101840008A69594B9A424DD00268936823F47023F9
:101850009360026893688C6923439360026893687D
:1018600023F44013936002689368CC692343936028
:101870004B7D002B41D00268536843F48063536072
:101880000B7D002B3FD00268536843F480535360B4
:101890004B68022B57D0032B62D0012B39D0026842
:1018A000136A23F47F6323F00F0313620268136A41
:1018B000CC682343136238E005682A699BB203EBC6
:1018C0004303072404FA03F322EA03032B610568A8
:1018D0002A698C680B8803EB430304FA03F3134370
:1018E0002B6182E70268936823F470239360026897
:1018F000936823F440139360BAE70268536823F4B3
:1019000080635360BCE70268536823F480535360DC
:10191000BEE70268536923F47F6323F00F0353612A
:1019200002685369CC682343536102681F4B9A4293
:1019300023D002681D4B9A4228D0002380F83C3007
:10194000184630BC70470268936923F47F6323F024
:101950000F03936102689369CC6823439361E4E7C2
:101960000268D36923F47F6323F00F03D361026815
:10197000D369CC682343D361D7E70B68122BD8D146
:101980000B4A536843F480035360D2E70B68094A5B
:10199000934201D0112BD0D1054A536843F4000380
:1019A0005360CAE70220704701000F000020014089
:1019B0000023014012000010074AD36823F4E063BB
:1019C0001B041B0C000200F4E060184340F0BF60F1
:1019D00040F40030D060704700ED00E030B4174BA9
:1019E000DB68C3F30223C3F10704042C28BF0424DB
:1019F0001D1D062D18D9033B4FF0FF3505FA04F4E1
:101A000021EA0401994005FA03F322EA030319438A
:101A100000280BDB0901C9B200F1604000F561400C
:101A200080F8001330BC70470023E5E700F00F009A
:101A30000901C9B2024B1954F4E700BF00ED00E000
:101A400014ED00E0002807DB00F01F02400901232D
:101A50009340024A42F82030704700BF00E100E0A6
:101A60000138B0F1807F0AD2064B5860064AF02157
:101A700082F823100020986007221A607047012026
:101A8000704700BF10E000E000ED00E030B40568F2
:101A90002C6824F480242C60046863608368402BE5
:101AA00005D0036899600368DA6030BC704703684A
:101AB0009A600368D960F8E70268D3B2103B0B491B
:101AC000A1FB03131B090A49C95CC165032B06D896
:101AD00022F47F7222F003028265806D704722F447
:101AE0007F7222F0030204328265F6E7ABAAAAAA4B
:101AF000343F0008836A826992B9012B0AD01BB176
:101B0000022B01D000207047C36A13F0807F2CD1D4
:101B100000207047C36AB3F1C07F28D0002070470F
:101B2000B2F5005F05D0022B29D9032B15D0002078
:101B30007047032B03D8DFE803F01C041C0A0020C5
:101B40007047C36A13F0807F15D100207047C36AC5
:101B5000B3F1C07F11D000207047C36A13F0807FBB
:101B600001D00120704700207047012070470120FC
:101B70007047012070470120704701207047012005
:101B80007047000070B50446FFF76CFB002C5BD07B
:101B90000546002384F83430022384F83530226867
:101BA000136823F00103136023681A6812F0010F11
:101BB0000AD0FFF757FB401B0528F5D920236365A2
:101BC000032084F8350070BD1A6820481040616811
:101BD000A2680A43E1680A4321690A4361690A432A
:101BE000A1690A43E1690A43216A0A430243616A1F
:101BF00004291ED01A602668756925F00705636AF6
:101C00001D43042B07D1A36A1D43E36A1BB1204681
:101C1000FFF770FF90B975612046FFF74DFFE26D49
:101C20003F239340836000206065012384F83530B2
:101C3000C9E7E16A206B01430A43DBE740236365A0
:101C4000012084F83500BEE70120BCE73F8010F09A
:101C500038B5856D90F83440012C2CD0012480F8E3
:101C6000344090F83540E4B2012C04D0002380F8D1
:101C70003430022038BD0446022084F835000020AC
:101C800060652046FFF702FFE26D3F239340AB60A3
:101C90002268136843F016031360236C23B1226893
:101CA000136843F0080313602268136843F00103CC
:101CB00013600020DEE70220DCE790F83530DBB26D
:101CC000022B03D08023436501207047052380F851
:101CD00035300268136823F0010313600020704759
:101CE000F0B583B0044600230193724B1D68724B1C
:101CF000A3FB0535AD0A876D3E68C26D082393408E
:101D0000334210D003681A6812F0040F0BD01A681F
:101D100022F004021A60C26D08239340BB60436D39
:101D200043F001034365E26D01239340334209D040
:101D30002268526912F0800F04D0BB60636D43F0DB
:101D400002036365E26D04239340334209D02268A5
:101D5000126812F0020F04D0BB60636D43F00403FD
:101D60006365E26D10239340334224D022681268E9
:101D700012F0080F1FD0BB6023681A6812F4802F7E
:101D80000DD01B6813F4002F04D1236C9BB12046A7
:101D9000984710E0A36C73B1204698470BE01A688F
:101DA00012F4807F03D11A6822F008021A60236CB3
:101DB0000BB120469847E26D20239340334255D023
:101DC0002268126812F0100F50D0BB6094F83530C2
:101DD000DBB2052B0ED023681A6812F4802F33D0A3
:101DE0001B6813F4002F2AD1636C002B3ED02046D1
:101DF00098473BE02268136823F0160313602268BB
:101E0000536923F080035361236CA3B122681368E4
:101E100023F008031360E26D3F239340BB6000236F
:101E200084F83430012384F83530236D002B3FD003
:101E3000204698473CE0A36C002BE7D1EBE7E36B2F
:101E4000A3B12046984711E01A6812F4807F09D1A7
:101E50001A6822F010021A60002384F8343001233B
:101E600084F83530E36B0BB120469847636DFBB1C6
:101E7000636D13F0010F17D0052384F83530226805
:101E8000136823F001031360019B01330193AB42FC
:101E900004D823681B6813F0010FF5D1002384F8E0
:101EA0003430012384F83530E36C0BB12046984779
:101EB00003B0F0BD00000020B5814E1B00230F2BA6
:101EC00000F2C580F0B583B039E0042200E00022C2
:101ED000AA403A4302345E4D45F824205D4A146816
:101EE000F24302EA04054F6817F4803F01D046EA46
:101EF0000405584C2560646802EA04054F6817F42D
:101F0000003F01D046EA0405524C6560A46802EA2D
:101F100004054F6817F4801F01D046EA04054D4CB4
:101F2000A560E46822404D6815F4001F01D046EA20
:101F30000402484CE26001330F2B00F2868001223C
:101F40009A400C6804EA0206B242F4D14C68651E5D
:101F5000012D03D9112C01D0122C12D185685F00FC
:101F60000324BC4025EA0405CC68BC402C438460B3
:101F7000456825EA02054C68C4F300129A402A43DA
:101F80004260C4685F000322BA40D24314408D68A7
:101F9000BD402543C5604C68022C01D0122C13D1E2
:101FA000DD08083550F825E003F007044FEA840CFB
:101FB0000F2404FA0CF42EEA040E0C6904FA0CF453
:101FC00044EA0E0440F82540046822404C6804F0BE
:101FD0000304BC40224302604A6812F0805FAAD02A
:101FE000002201921C4A546C44F480445464526CA4
:101FF00002F480420192019A9C08A51C144A52F8EE
:10200000257003F0030295000F22AA4027EA020779
:10201000124A90423FF45BAF02F5806290420ED0CC
:1020200002F5806290420CD002F5806290420AD0A4
:1020300002F5806290423FF448AF072248E7012250
:1020400046E7022244E7032242E703B0F0BD7047AF
:1020500000380140003C01400038024000000240CE
:1020600012B909048161704781617047436931EA9F
:10207000030301D081617047090481617047704793
:1020800008B5054B5B69034200D108BD024B58619E
:10209000FFF7F5FFF9E700BF003C0140002800F022
:1020A000E48170B582B00446036813F0010F3BD0A1
:1020B000A74B9B6803F00C03042B2CD0A44B9B680C
:1020C00003F00C03082B21D06368B3F5803F4FD099
:1020D000B3F5A02F52D09E4B1A6822F480321A60BA
:1020E0001A6822F480221A606368002B50D0FFF730
:1020F000B9F80546964B1B6813F4003F14D1FFF75F
:10210000B1F8401B6428F5D90320B3E1904B5B681C
:1021100013F4800FD8D08E4B1B6813F4003F03D00C
:102120006368002B00F0A381236813F0020F55D0E1
:10213000874B9B6813F00C0F3ED0854B9B6803F0D8
:102140000C03082B33D0E368002B68D0814B0122AD
:102150001A60FFF787F805467D4B1B6813F0020FE6
:1021600054D1FFF77FF8401B0228F5D9032081E105
:10217000774A136843F480331360B5E7744B1A68E9
:1021800042F480221A601A6842F480321A60ABE787
:10219000FFF768F805466E4B1B6813F4003FC3D089
:1021A000FFF760F8401B6428F5D9032062E1684B13
:1021B0005B6813F4800FC6D1654B1B6813F0020FE8
:1021C00004D0E368012B01D0012053E1604A136879
:1021D00023F0F803216943EAC1031360236813F075
:1021E000080F40D0636963B35B4B01221A60FFF7AD
:1021F00039F80546564B5B6F13F0020F33D1FFF7EA
:1022000031F8401B0228F5D9032033E1504A136806
:1022100023F0F803216943EAC1031360DEE74D4B65
:1022200000221A60FFF71EF80546494B1B6813F0A1
:10223000020FD3D0FFF716F8401B0228F5D9032070
:1022400018E1454B00221A60FFF70CF80546404B99
:102250005B6F13F0020F06D0FFF704F8401B022853
:10226000F5D9032006E1236813F0040F79D0384B29
:102270001B6C13F0805F33D100230193344B1A6C35
:1022800042F080521A641B6C03F080530193019B4F
:102290000125324B1B6813F4807F23D0A368012BE8
:1022A00034D0052B38D02A4B1A6F22F001021A675E
:1022B0001A6F22F004021A67A368002B36D0FEF7CB
:1022C000D1FF0646224B1B6F13F0020F48D1FEF7D9
:1022D000C9FF801B41F288339842F3D90320C9E03B
:1022E0000025D6E71D4A136843F480731360FEF798
:1022F000B9FF0646194B1B6813F4807FCED1FEF759
:10230000B1FF801B0228F5D90320B3E0104A136FF8
:1023100043F001031367CFE70D4B1A6F42F004023D
:102320001A671A6F42F001021A67C5E7FEF79AFFB3
:102330000646074B1B6F13F0020F11D0FEF792FFFA
:10234000801B41F288339842F3D9032092E000BF0A
:102350000038024000004742800E474200700040B3
:10236000EDB9A369002B00F08480454A926802F021
:102370000C02082A51D0022B17D0424B00221A60BF
:10238000FEF770FF04463E4B1B6813F0007F42D0FF
:10239000FEF768FF001B0228F5D903206AE0384ADF
:1023A000136C23F080531364DBE7364B00221A6072
:1023B000FEF758FF0546324B1B6813F0007F06D02E
:1023C000FEF750FF401B0228F5D9032052E0E369D5
:1023D000226A1343626A43EA8213A26A5208013AEC
:1023E00043EA0243E26A43EA0263254A5360254B0B
:1023F00001221A60FEF736FF0446214B1B6813F0DA
:10240000007F06D1FEF72EFF001B0228F5D903201E
:1024100030E000202EE000202CE0012B2CD0184BC7
:102420005B6803F48001E269914201D0012021E060
:1024300003F03F02216A8A4201D001201AE0616A5A
:1024400047F6C0721A408A4201D0012012E003F41C
:102450004032A16A8A4201D001200BE003F0706390
:10246000E26A93420AD0012004E001207047012073
:1024700000E0002002B070BD0120FBE70020F9E77A
:102480000038024060004742324B9B6803F00C0367
:10249000042B5CD0082B01D02F4870472DE9F04B5E
:1024A0002C4B5A6802F03F025B6813F4800F2BD06C
:1024B000284B5B68C3F388131E4600275C01002588
:1024C000E41A65EB0705A90141EA9461A001001B2C
:1024D00061EB0501CB0043EA5073C400A01943EB44
:1024E00007014B0243EAD053440220461946002319
:1024F000FDF776FE174B5B68C3F3014301335B00C6
:10250000B0FBF3F0BDE8F08B124B5B68C3F38813AC
:102510001E4600275C010025E41A65EB0705A901AA
:1025200041EA9461A001001B61EB0501CB0043EA85
:102530005073C400A01943EB07018B0243EA905388
:102540008402204619460023FDF74AFED2E70348DD
:10255000704700BF003802400024F40000127A00E7
:10256000002800F09E8070B50446504B1B6803F0B5
:102570000F038B4209D2CBB24C4A1370136803F09D
:102580000F038B4201D0012070BD236813F0020FAE
:1025900017D013F0040F04D0454A936843F4E05376
:1025A0009360236813F0080F04D0414A936843F402
:1025B000604393603E4A936823F0F003A0680343AE
:1025C00093600D46236813F0010F32D06368012B2E
:1025D00021D09A1E012A25D9354A126812F0020F1D
:1025E00061D033498A6822F0030213438B60FEF7FF
:1025F00039FE06462E4B9B6803F00C036268B3EB72
:10260000820F16D0FEF72EFE801B41F288339842CF
:10261000F0D90320B8E7264A126812F4003FE0D14F
:102620000120B1E7224A126812F0007FD9D10120BF
:10263000AAE71E4B1B6803F00F03AB4209D9EAB2AD
:102640001A4B1A701B6803F00F03AB4201D0012034
:102650009AE7236813F0040F06D0154A936823F411
:10266000E053E1680B439360236813F0080F07D031
:102670000F4A936823F46043216943EAC1039360DE
:10268000FFF702FF0A4B9B68C3F30313094AD35CAD
:10269000D840094B1860094B1868FEF799FD0020D7
:1026A00072E70120704701206EE700BF003C024046
:1026B000003802401C3F00080000002008000020F5
:1026C000014B1868704700BF0000002008B5FFF7F5
:1026D000F7FF044B9B68C3F38223034AD35CD840C3
:1026E00008BD00BF003802402C3F000808B5FFF7C6
:1026F000E7FF044B9B68C3F34233034AD35CD840E3
:1027000008BD00BF003802402C3F000810B4036A27
:10271000046A24F001040462846924F0F00444EAA9
:10272000021223F00A030B43826103625DF8044B3B
:10273000704710B4036A23F0100303628469036ACC
:1027400024F4704444EA023223F0A00343EA011364
:10275000826103625DF8044B7047836823F0700365
:10276000194341F00701816070470268D36843F064
:102770000103D3600268936803F00703062B03D0BC
:10278000136843F0010313600020704770477047DF
:102790007047704710B5044603681A6912F0020FBB
:1027A00011D0DA6812F0020F0DD06FF002021A6138
:1027B0000123037703689B6913F0030F70D0FFF7C1
:1027C000E6FF0023237723681A6912F0040F12D062
:1027D000DA6812F0040F0ED06FF004021A610223BF
:1027E000237723689B6913F4407F5FD02046FFF76F
:1027F000CEFF0023237723681A6912F0080F12D046
:10280000DA6812F0080F0ED06FF008021A61042384
:1028100023772368DB6913F0030F4ED02046FFF7C0
:10282000B6FF0023237723681A6912F0100F12D025
:10283000DA6812F0100F0ED06FF010021A61082340
:1028400023772368DB6913F4407F3DD02046FFF7F0
:102850009EFF0023237723681A6912F0010F03D02B
:10286000DA6812F0010F36D123681A6912F0800F6E
:1028700003D0DA6812F0800F34D123681A6912F09D
:10288000400F03D0DA6812F0400F32D123681A6982
:1028900012F0200F03D0DA6812F0200F30D110BDF3
:1028A000FFF774FF2046FFF773FF8AE72046FFF724
:1028B0006DFF2046FFF76CFF9BE72046FFF766FFA2
:1028C0002046FFF765FFACE72046FFF75FFF204695
:1028D000FFF75EFFBDE76FF001021A612046FEF7C9
:1028E00041FBC1E76FF080021A61204600F02DF92C
:1028F000C3E76FF040021A612046FFF74AFFC5E7C1
:102900006FF020021A61204600F01EF9C7E70000B0
:102910000368254A90420ED0B0F1804F0BD0A2F54B
:102920007C42904207D002F58062904203D002F5CB
:102930008062904203D123F070034A6813431A4A1D
:1029400090421AD0B0F1804F17D0A2F57C4290424D
:1029500013D002F5806290420FD002F5806290425F
:102960000BD002F59A32904207D002F58062904275
:1029700003D002F58062904203D123F44073CA6809
:10298000134323F080034A69134303608B68C362D7
:102990000B688362044B984202D001234361704765
:1029A0000B690363F9E700BF00000140A8B110B54F
:1029B000044690F83D305BB1022384F83D30211D80
:1029C0002068FFF7A5FF012384F83D30002010BDEB
:1029D00080F83C30FEF75EFBEEE70120704710B454
:1029E000846824F47F4442EA03230B432343836037
:1029F0005DF8044B704790F83C30012B66D010B561
:102A00000446012380F83C30022380F83D30026800
:102A1000936823F47F4323F0770393600B68402B84
:102A20004AD013D9602B3DD01ED9702B28D0B3F5D6
:102A3000005F30D1CB684A6889680068FFF7CFFF34
:102A40002268936843F48043936024E0102B06D0FF
:102A500004D9202B03D0302B01D01CE0DBB9194660
:102A60002068FFF77AFE16E0502B14D1CA68496837
:102A70000068FFF74BFE50212068FFF76EFE0AE06A
:102A8000CB684A6889680068FFF7A9FF22689368E5
:102A900043F077039360012384F83D30002084F8ED
:102AA0003C0010BDCA6849680068FFF742FE60211B
:102AB0002068FFF752FEEEE7CA6849680068FFF732
:102AC00025FE40212068FFF748FEE4E7022070471A
:102AD00090F83C30012B33D030B4012380F83C30E7
:102AE000022380F83D3003685C689D6824F0700420
:102AF0000A6822435A600368124A934212D0B3F123
:102B0000804F0FD0A2F57C4293420BD002F5806239
:102B1000934207D002F58062934203D002F59A32C5
:102B2000934204D125F080054A6815439D60012336
:102B300080F83D30002380F83C30184630BC7047A8
:102B40000220704700000140704770470268D36858
:102B500023F49073D3600268536923F00103536137
:102B6000202380F83A30704790F83930DBB2212BBF
:102B70002AD18368B3F5805F16D0036A5A1C0262BB
:102B80001A7803685A60C38C013B9BB2C384EBB9CB
:102B90000268D36823F08003D3600268D36843F0EF
:102BA0004003D36000207047036A1B880268C3F3A8
:102BB0000803536003691BB9036A02330362E2E747
:102BC000036A01330362DEE702207047002070478A
:102BD0002DE9F04B04460268136923F44053C168A1
:102BE0000B43136183680269134342691343C2694B
:102BF0001A430168CB6823F4164323F00C031343F4
:102C0000CB600268536923F4407381690B435361BD
:102C1000C369B3F5004F3BD00368714A934200F09B
:102C2000AB8002F58062934200F0A680FFF74EFD74
:102C30004FF00009061849EB090716EB000B47EBAC
:102C4000090C4FEACC0343EA5B734FEACB0293468D
:102C50009C4663689A009B0F10EB0B0049EB0C013C
:102C6000FDF7BEFA5F4DA5FB00325109642202FB5D
:102C7000110213013233A5FB03235B0903F0F002B9
:102C800002EB011203F00F03216813448B60A4E0F0
:102C90000368534A934239D002F58062934235D09B
:102CA000FFF714FD83464FF0000C06184CEB0C07A1
:102CB00016EB000847EB0C094FEAC90343EA5873C7
:102CC0004FEAC8029046994662680021921841EB8B
:102CD00001031BEB08004CEB0901FDF781FA414DA4
:102CE000A5FB00325109642202FB1102D3003233EA
:102CF000A5FB03235B095A0002F4F87202EB0112F0
:102D000003F00703216813448B6066E0FFF7EEFCD5
:102D100080464FF00009061849EB090716EB000B37
:102D200047EB090C4FEACC0343EA5B734FEACB0253
:102D300093469C4662680021921841EB010318EB10
:102D40000B0049EB0C01FDF74BFA264DA5FB0032B9
:102D50005109642202FB1102D3003233A5FB032385
:102D60005B095A0002F4F87202EB011203F0070348
:102D7000216813448B6030E0FFF7B8FC4FF0000986
:102D8000061849EB090716EB000B47EB090C4FEA55
:102D9000CC0343EA5B734FEACB0293469C466368DD
:102DA0009A009B0F10EB0B0049EB0C01FDF718FA92
:102DB0000C4DA5FB00325109642202FB11021301E4
:102DC0003233A5FB03235B0903F0F00202EB01128F
:102DD00003F00F03216813448B60BDE8F08B00BF44
:102DE000001001401F85EB5158B310B5044690F810
:102DF00039300BB3242384F839302268D36823F4A4
:102E00000053D3602046FFF7E3FE2268136923F4E2
:102E1000904313612268536923F02A0353612268A7
:102E2000D36843F40053D3600020E063202384F888
:102E3000393084F83A3010BD80F83830FEF748F960
:102E4000D8E70120704790F83930DBB2202B16D13B
:102E5000B9B1C2B190F83830012B16D0016282842A
:102E6000C2840023C363212280F8392080F83830DF
:102E70000168CA6842F08002CA60184670470220A2
:102E8000704701207047012070470220704790F87A
:102E90003A30DBB2202B20D109B312B390F838308E
:102EA000012B20D081628285C2850023C363222248
:102EB00080F83A2080F838300168CA6842F480729D
:102EC000CA6001684A6942F001024A610168CA6841
:102ED00042F02002CA601846704702207047012065
:102EE00070470120704702207047704708B501689D
:102EF000CB6823F04003CB60202380F83930FFF704
:102F0000F4FF002008BD08B590F83A30DBB2222B60
:102F100045D18368B3F5805F0ED0036903BB0368B6
:102F20005A68836A591C81621A70C38D013B9BB237
:102F3000C385F3B1002033E0826A036943B90368B3
:102F40005B68C3F308031380836A02338362ECE790
:102F500003685B68DBB21380836A01338362E4E752
:102F600003685B68826A511C816203F07F031370FF
:102F7000DBE70268D36823F02003D3600268D368DC
:102F800023F48073D3600268536923F00103536113
:102F9000202380F83A30FDF7FBFF002000E00220FC
:102FA00008BD704710B5044602681368D1685269BD
:102FB00013F00F0005D113F0200F02D011F0200FF5
:102FC00056D100286AD012F0010202D111F4907F8C
:102FD00064D013F0010F06D011F4807F03D0E06BB2
:102FE00040F00100E06313F0040F04D01AB1E06B6D
:102FF00040F00200E06313F0020F04D01AB1E06B5E
:1030000040F00400E06313F0080F07D011F0200F28
:1030100000D11AB1E26B42F00802E263E26B002ACF
:1030200048D013F0200F02D011F0200F24D12368D4
:103030005B6903F04003E26B12F0080F00D13BB371
:103040002046FFF783FD23685A6912F0400F1BD01A
:103050005A6922F040025A61636B8BB11A4A1A65B1
:10306000606BFEF72AFE28B3606B036D984721E082
:103070002046FFF748FF1DE02046FFF744FFD6E754
:103080002046FFF78EFF15E02046FFF78AFF11E08C
:103090002046FFF786FF0023E3630BE013F0800F69
:1030A00002D011F0800F06D113F0400F02D011F0C2
:1030B000400F04D110BD2046FFF756FDFAE7204629
:1030C000FFF714FFF6E700BFCD30000808B5806BAE
:1030D0000023C385C384FFF764FF08BDDFF834D045
:1030E000002103E00C4B5B58435004310B480C4B60
:1030F00042189A42F6D30B4A02E0002342F8043BFE
:10310000094B9A42F9D3FEF755F8FDF741FAFDF75E
:10311000BDFE70470000022088400008000000202B
:103120007C0000207C0000208C020020FEE70000D4
:10313000014B1868704700BF0C000020002310B539
:103140000446C0E90033836081814366C281C0E9DF
:1031500004338361194608225C30FDF73DFA054BC4
:103160006362054BA362054BE362054B2462236354
:1031700010BD00BFD5330008F73300082F34000816
:1031800053340008014900F085B800BFAD35000890
:1031900070B54A1E682555430E4605F1740100F0CE
:1031A00097F8044640B10021C0E900160C30A06039
:1031B00005F16802FDF710FA204670BD836910B56D
:1031C000044633BBC0E912330365124B124A1B6835
:1031D0008262984204BF0123836100F01FF860609F
:1031E000204600F01BF8A060204600F017F80022EF
:1031F000E06004216068FFF7A1FF01220921A068B7
:10320000FFF79CFF02221221E068FFF797FF0123DE
:10321000A36110BD3C3F000885310008F8B51B4B89
:103220001E68B369074613B93046FFF7C7FF483633
:10323000D6E90134013B03D5336833B13668F7E78B
:10324000B4F90C506DB16834F4E704213846FFF747
:103250009FFF30600028F1D10C233B6004462046DC
:10326000F8BD0B4B6566C4E90055A560C4E903359C
:10327000C4E905550822294604F15C00FDF7ACF9C4
:10328000C4E90D55C4E91255E9E700BF3C3F000809
:103290000100FFFF2DE9F8438046894600F148040C
:1032A000002614B93046BDE8F883D4E90175013F22
:1032B00001D52468F5E7AB89012B07D9B5F90E30A4
:1032C000013303D029464046C84706436835EEE738
:1032D00070B5CD1C25F0030508350C2D38BF0C2525
:1032E000002D064601DBA94203D90C2333600020E0
:1032F00070BD00F097F9214A1468214691B9204C1D
:1033000023681BB9304600F055F820602946304646
:1033100000F050F8431C24D10C233360304600F0F9
:1033200082F9E4E70B685B1B18D40B2B0FD90B60F9
:10333000CD50CC18304600F076F904F10B00231D77
:1033400020F00700C31AD3D05A42E250D0E78C4293
:103350004B6816BF636013600C46EBE70C46496888
:10336000CCE7C41C24F00304A04205D0211A304647
:1033700000F020F80130CFD02560DBE748010020C5
:103380004C0100200FB40A4B13B51C6824B1A3698B
:1033900013B92046FFF712FF05AB049AA168019309
:1033A000204600F0B9F902B0BDE8104004B0704703
:1033B0000C00002038B5064C002305460846236063
:1033C000FDF718FA431C02D1236803B12B6038BD06
:1033D0008802002010B50C46B1F90E1000F03AFC3E
:1033E0000028ABBF636DA3891B1823F48053ACBFC7
:1033F0006365A38110BD2DE9F0411F468B89DB0574
:1034000005460C46164605D502230022B1F90E10DA
:1034100000F0F6F8A389B4F90E1023F48053A381C9
:1034200032463B462846BDE8F04100F017B810B5DB
:103430000C46B1F90E1000F0E3F8431CA38915BF48
:10344000606523F4805343F48053A38118BFA381A4
:1034500010BDB1F90E1000F013B8000038B5074CDC
:10346000054608461146002222601A46FDF76DF90E
:10347000431C02D1236803B12B6038BD88020020B1
:1034800038B5064C0023054608462360FDF78CF945
:10349000431C02D1236803B12B6038BD8802002091
:1034A0008A892DE9F041054610070C4658D44B682F
:1034B000002B05DC0B6C002B02DC0020BDE8F0814A
:1034C000E66A002EF9D0002312F480522F68216A98
:1034D0002B6032D0606DA3895A0705D56368C01A86
:1034E000636B0BB1236CC01A00230246E66A216AA3
:1034F0002846B047431CA38906D129681D2948D80E
:10350000294ACA40D60744D500226260D9042269FC
:10351000226004D5421C01D12B6803B96065616B40
:103520002F600029C9D004F14403994202D02846F3
:1035300000F07AF800206063C0E701232846B04716
:10354000411CC8D12B68002BC5D01D2B01D0162BD8
:1035500001D12F60B1E7A38943F04003A381ADE718
:103560000F69002FA9D093070E6808BF4B690F6041
:1035700018BF0023A6EB07088B60B8F1000F9CDD95
:1035800043463A46216AA66A2846B047002806DC28
:10359000A38943F04003A3814FF0FF308EE7074437
:1035A000A8EB0008E9E700BF0100402038B50B692F
:1035B00005460C46DBB118B183690BB9FFF7FEFD78
:1035C0000C4B9C4209D16C68B4F90C307BB121469C
:1035D0002846BDE83840FFF763BF074B9C4201D146
:1035E000AC68F1E7054B9C4208BFEC68ECE70020B3
:1035F00038BD00BF0440000824400008E43F000834
:1036000038B5074C054608461146002222601A4686
:10361000FDF789F8431C02D1236803B12B6038BD44
:10362000880200207047704738B50546002945D00C
:1036300051F8043C0C1F002BB8BFE418FFF7F2FF51
:103640001F4A1368104633B9636014602846BDE80A
:103650003840FFF7E8BFA3420CD9216862189342B3
:1036600004BF1A685B68636004BF5218226004607C
:10367000ECE713465A680AB1A242FAD919685818F9
:10368000A0420BD120680144581882421960DDD154
:10369000106852685A6001441960D7E702D90C23B8
:1036A0002B60D3E7206821188A4204BF1168526852
:1036B000626004BF091821605C60C7E738BD00BFC5
:1036C000480100209368013B002B10B4936008DA96
:1036D0009469A34201DB0A2903D15DF8044B00F091
:1036E000CBBA1368581C1060197008465DF8044B7B
:1036F0007047F8B506460F461446D518AC4201D1BE
:10370000002007E03A4614F8011B3046FFF7DAFFC5
:10371000431CF3D1F8BD00002DE9F04F0C469DB0DD
:1037200017461D46064618B183690BB9FFF746FDDB
:103730007C4B9C4258D17468A38918075ED52369D5
:10374000002B5BD00023099320238DF829303023F0
:103750008DF82A3003954FF0010BB846454615F811
:10376000013B0BB1252B54D1B8EB070A0BD05346C4
:103770003A4621463046FFF7BCFF013000F0C280D8
:10378000099B5344099398F80030002B00F0BA804D
:1037900000234FF0FF32CDE90523049307938DF802
:1037A00053301A93A846052218F8011B5E48FCF70F
:1037B0009FFE049B78BBD90644BF20228DF853207E
:1037C0001A0744BF2B228DF853202A782A2A2AD0A0
:1037D000079AA84600200A25414611F8013B303BD4
:1037E000092B69D960B324E0504B9C4201D1B468E5
:1037F000A2E74F4B9C4208BFF4689DE72146304644
:1038000000F08CFA00289DD04FF0FF301DB0BDE8CD
:10381000F08FA846A2E7444A801A0BFA00F018433A
:1038200004904546BEE7039A111D12680391002AD1
:1038300001DB079204E0524243F002030792049333
:1038400098F800302E2B0ED198F801302A2B38D161
:10385000039B1A1D1B680392002BB8BF4FF0FF3368
:1038600008F102080593334D98F80010032228460A
:10387000FCF73EFE40B14023401B03FA00F0049BDE
:10388000034308F10108049398F800102A488DF8C2
:103890002810062208F10107FCF72AFE002837D07D
:1038A000264B1BBB039B073323F00703083303930B
:1038B000099B4B44099350E705FB023201208846DF
:1038C0008AE7002308F10108059319460A254046B6
:1038D00010F8012B303A092A03D9002BC3D00591E7
:1038E000C1E705FB012101238046F0E703AB00930C
:1038F0002246134B04A93046AFF30080B0F1FF3FDE
:103900008146D5D1A3895B063FF57EAF09987DE757
:1039100003AB009322460A4B04A9304600F088F816
:10392000ECE700BF044000084440000824400008C1
:10393000E43F00084A4000084E4000080000000034
:10394000F33600082DE9F04791461F468A680B6957
:10395000DDF820809342B8BF1346C9F8003091F8D3
:10396000432006460C4612B10133C9F800302368E3
:10397000990642BFD9F800300233C9F800302568F3
:1039800015F0060507D104F1190AE368D9F80020FB
:103990009B1AAB4228DC94F843302268003318BFEE
:1039A000012392062DD404F1430239463046C04724
:1039B000013020D02368E568D9F8002003F0060321
:1039C000042B08BFAD1AA36822690CBF25EAE57570
:1039D00000259342C4BF9B1AED184FF000091A341A
:1039E0004D451AD1002008E00123524639463046A1
:1039F000C047013003D14FF0FF30BDE8F0870135FB
:103A0000C3E7E1185A1C302081F84300224494F89F
:103A1000451082F843100233C5E701232246394698
:103A20003046C0470130E6D009F10109D8E700006F
:103A30002DE9F04301F1430C0C46097E85B06E2957
:103A40001746064698460C9A00F0B38022D86329A0
:103A500036D00AD8002900F0B980582900F08380B8
:103A600004F1420584F8421032E0642901D069294A
:103A7000F6D120681368050603F104012AD51B68F6
:103A80001160002B03DA2D225B4284F843206F483B
:103A90000A2239E0732900F09D8008D86F2920D0D0
:103AA0007029DDD1236843F02003236003E07529EA
:103AB00017D07829D4D1782384F84530644855E06C
:103AC0001368191D1B68116004F1420584F8423027
:103AD00001238CE01B68116010F0400F18BF1BB26F
:103AE000CFE713682568181D1060280601D51B68EC
:103AF00002E06806FBD51B8854486F2914BF0A22D0
:103B00000822002184F843106568A560002DC0F2EA
:103B10009580216821F004012160002B3DD1002D0A
:103B200040F08E806546082A0BD12368DB0708D554
:103B3000236962689A42DEBF302305F8013C05F133
:103B4000FF35ACEB05032361CDF800803B4603AAAB
:103B500021463046FFF7F6FE01304DD14FF0FF30E1
:103B600005B0BDE8F083394884F845101368216832
:103B70001D1D1B6815600A060BD5CA0744BF41F01E
:103B8000200121601BB9226822F02002226010224D
:103B9000B7E74D0648BF9BB2EFE76546B3FBF2F1CE
:103BA00002FB1133C35C05F8013D0B460029F5D13A
:103BB000B9E7136825686169181D106028061B683D
:103BC00001D5196002E06A06FBD519800023236144
:103BD0006546B9E71368191D11601D686268002108
:103BE0002846FCF785FC08B1401B606063682361D0
:103BF000002384F84330A7E723692A463946304634
:103C0000C0470130AAD023689B0713D4E068039B08
:103C10009842B8BF1846A3E701234A4639463046C2
:103C2000C04701309AD00135E368039A9B1AAB4232
:103C3000F2DCEBE7002504F11909F5E7002BACD124
:103C4000037884F8423004F142056CE755400008DF
:103C50006640000838B5074C054608461146002264
:103C600022601A46FCF708FD431C02D1236803B109
:103C70002B6038BD88020020F8B50E461446054674
:103C800018B183690BB9FFF799FA214B9C422AD1ED
:103C90006C68A369A360A3891A072ED5236963B34F
:103CA00023692068C01A6369F6B28342374604DC90
:103CB00021462846FFF77AFC28BBA368013BA36096
:103CC00023685A1C22601E7063690130834204D04D
:103CD000A389DB0719D50A2E17D121462846FFF7FD
:103CE00065FC90B10FE00B4B9C4201D1AC68D0E772
:103CF000094B9C4208BFEC68CBE72146284600F000
:103D00000DF80028CCD04FF0FF373846F8BD00BF83
:103D10000440000824400008E43F0008324B70B51E
:103D20001D6806460C4625B1AB6913B92846FFF756
:103D300045FA2E4B9C420FD16C68B4F90C309AB204
:103D400015072CD4D00611D40922326043F0400369
:103D5000A3814FF0FF303EE0254B9C4201D1AC687F
:103D6000EBE7244B9C4208BFEC68E6E7510712D50D
:103D7000616B41B104F14403994202D03046FFF730
:103D800053FC00236363A38923F02403A38100234E
:103D9000636023692360A38943F00803A381236937
:103DA0004BB9A38903F42073B3F5007F03D02146F8
:103DB000304600F045F8A28912F001030CD0002330
:103DC000A36063695B42A361236953B9B4F90C3002
:103DD00013F08000BAD170BD920758BF6369A36029
:103DE000F2E70020F7E700BF0C00002004400008C5
:103DF00024400008E43F000870B50E46B1F90E10EB
:103E0000002996B014461D4607DA00232B60B389BB
:103E10001A0610D44FF480630EE06A4600F050F8A2
:103E20000028F2DB019A02F47042A2F500535A42D4
:103E30005A412A60EEE740230020236016B070BD8F
:103E40008B8973B59D0706460C4607D504F14703D9
:103E5000236023610123636102B070BD01AB6A4638
:103E6000FFF7CAFF009905463046FFF731FA48B917
:103E7000B4F90C309A05EFD423F0030343F00203A6
:103E8000A381E3E70D4BB362A389206043F0800375
:103E9000A381009B6361019B20615BB1B4F90E10AB
:103EA000304600F01FF828B1A38923F0030343F044
:103EB0000103A381A3891D43A581CDE785310008B6
:103EC00038B5074C00230546084611462360FCF729
:103ED000D6FC431C02D1236803B12B6038BD00BF60
:103EE0008802002038B5064C0023054608462360AA
:103EF000FCF72AFE431C02D1236803B12B6038BDB6
:103F000088020020F8B500BFF8BC08BC9E46704788
:0C3F1000F8B500BFF8BC08BC9E46704726
:103F1C00000000000000000001020304060708096D
:103F2C000000000001020304000610160006101623
:103F3C00100000203A73656D69686F7374696E6761
:103F4C002D6665617475726573003A7474000000B7
:103F5C0050726F6772616D2073746172740000002F
:103F6C002573200A0000000053656E64696E67209B
:103F7C0063686172000000004572726F720000008D
:103F8C0052656365697665643A20000025732025C7
:103F9C0063200A0053616D706C655F74657874738F
:103FAC0000000000434825643A2025640A00000004
:103FBC0054696D3220656C6170736564000000009B
:103FCC00257300005541525420525820636F6D7078
:103FDC006C6574650000000000000000000000002B
:103FEC0000000000000000000000000000000000C5
:103FFC0000000000000000000000000000000000B5
:10400C0000000000000000000000000000000000A4
:10401C000000000000000000000000000000000094
:10402C000000000000000000000000000000000084
:10403C000000000000000000232D302B2000686CD5
:10404C004C006566674546470030313233343536AF
:10405C0037383941424344454600303132333435E8
:0C406C0036373839616263646566000015
:0840780098C1FF7F0100000068
:04408000C50100086E
:04408400A10100088E
:104088000024F400010000001000000010000020CF
:10409800000000000440000824400008E43F000835
:1040A8000000000000000000000000000000000008
:1040B80000000000000000000000000000000000F8
:1040C80000000000000000000000000000000000E8
:1040D80000000000000000000000000000000000D8
:1040E80000000000000000000000000000000000C8
:0C40F800ADDEFECAFFFFFFFFFFFFFFFF71
:04000005080030DDE2
:00000001FF
